:020000040000fa
:080000000002040000000000f2
:020000040000fa
:04000800560300009b
:020000040000fa
:04000c005603000097
:020000040000fa
:040010005603000093
:020000040000fa
:04001400560300008f
:020000040000fa
:04001800560300008b
:020000040000fa
:04001c005603000087
:020000040000fa
:040020005603000083
:020000040000fa
:04002400560300007f
:020000040000fa
:04002800560300007b
:020000040000fa
:04002c005603000077
:020000040000fa
:040030005603000073
:020000040000fa
:04003400f0020000d6
:020000040000fa
:04003800560300006b
:020000040000fa
:04003c005603000067
:020000040000fa
:040040005603000063
:020000040000fa
:04004400560300005f
:020000040000fa
:04004800560300005b
:020000040000fa
:04004c005603000057
:020000040000fa
:040050005603000053
:020000040000fa
:04005400560300004f
:020000040000fa
:04005800560300004b
:020000040000fa
:04005c005603000047
:020000040000fa
:040060005603000043
:020000040000fa
:04006400560300003f
:020000040000fa
:04006800560300003b
:020000040000fa
:04006c005603000037
:020000040000fa
:040070005603000033
:020000040000fa
:04007400560300002f
:020000040000fa
:04007800560300002b
:020000040000fa
:04007c005603000027
:020000040000fa
:040080005603000023
:020000040000fa
:04008400560300001f
:020000040000fa
:04008800560300001b
:020000040000fa
:04008c005603000017
:020000040000fa
:040090005603000013
:020000040000fa
:04009400560300000f
:020000040000fa
:04009800560300000b
:020000040000fa
:04009c005603000007
:020000040000fa
:0400a0005603000003
:020000040000fa
:0400a40056030000ff
:020000040000fa
:0400a80056030000fb
:020000040000fa
:0400ac0056030000f7
:020000040000fa
:0400b00056030000f3
:020000040000fa
:0400b40056030000ef
:020000040000fa
:0400b80056030000eb
:020000040000fa
:0400bc0056030000e7
:020000040000fa
:0400c00056030000e3
:020000040000fa
:0400c40056030000df
:020000040000fa
:0400c80056030000db
:020000040000fa
:0400cc0056030000d7
:020000040000fa
:0400d00056030000d3
:020000040000fa
:0400d40056030000cf
:020000040000fa
:0400d80056030000cb
:020000040000fa
:0400dc0056030000c7
:020000040000fa
:0400e00056030000c3
:020000040000fa
:0400e40056030000bf
:020000040000fa
:0400e80056030000bb
:020000040000fa
:0400ec0056030000b7
:020000040000fa
:0400f00056030000b3
:020000040000fa
:0400f40056030000af
:020000040000fa
:0400f80056030000ab
:020000040000fa
:0400fc0056030000a7
:020000040000fa
:0401000056030000a2
:020000040000fa
:04010400560300009e
:020000040000fa
:04010800560300009a
:020000040000fa
:04010c005603000096
:020000040000fa
:040110005603000092
:020000040000fa
:04011400560300008e
:020000040000fa
:04011800560300008a
:020000040000fa
:04011c005603000086
:020000040000fa
:040120005603000082
:020000040000fa
:04012400560300007e
:020000040000fa
:04012800560300007a
:020000040000fa
:04012c005603000076
:020000040000fa
:040130005603000072
:020000040000fa
:04013400560300006e
:020000040000fa
:04013800560300006a
:020000040000fa
:04013c005603000066
:020000040000fa
:040140005603000062
:020000040000fa
:04014400560300005e
:020000040000fa
:040208005603000099
:020000040000fa
:04020c005603000095
:020000040000fa
:040210005603000091
:020000040000fa
:04021400560300008d
:020000040000fa
:040218005603000089
:020000040000fa
:04021c005603000085
:020000040000fa
:040220005603000081
:020000040000fa
:04022400560300007d
:020000040000fa
:040228005603000079
:020000040000fa
:04022c005603000075
:020000040000fa
:040230005603000071
:020000040000fa
:04023400f0020000d4
:020000040000fa
:040238005603000069
:020000040000fa
:04023c005603000065
:020000040000fa
:040240005603000061
:020000040000fa
:04024400560300005d
:020000040000fa
:040248005603000059
:020000040000fa
:04024c005603000055
:020000040000fa
:040250005603000051
:020000040000fa
:04025400560300004d
:020000040000fa
:040258005603000049
:020000040000fa
:04025c005603000045
:020000040000fa
:040260005603000041
:020000040000fa
:04026400560300003d
:020000040000fa
:040268005603000039
:020000040000fa
:04026c005603000035
:020000040000fa
:040270005603000031
:020000040000fa
:04027400560300002d
:020000040000fa
:040278005603000029
:020000040000fa
:04027c005603000025
:020000040000fa
:040280005603000021
:020000040000fa
:04028400560300001d
:020000040000fa
:040288005603000019
:020000040000fa
:04028c005603000015
:020000040000fa
:040290005603000011
:020000040000fa
:04029400560300000d
:020000040000fa
:040298005603000009
:020000040000fa
:04029c005603000005
:020000040000fa
:0402a0005603000001
:020000040000fa
:0402a40056030000fd
:020000040000fa
:0402a80056030000f9
:020000040000fa
:0402ac0056030000f5
:020000040000fa
:0402b00056030000f1
:020000040000fa
:0402b40056030000ed
:020000040000fa
:0402b80056030000e9
:020000040000fa
:0402bc0056030000e5
:020000040000fa
:0402c00056030000e1
:020000040000fa
:0402c40056030000dd
:020000040000fa
:0402c80056030000d9
:020000040000fa
:0402cc0056030000d5
:020000040000fa
:0402d00056030000d1
:020000040000fa
:0402d40056030000cd
:020000040000fa
:0402d80056030000c9
:020000040000fa
:0402dc0056030000c5
:020000040000fa
:0402e00056030000c1
:020000040000fa
:0402e40056030000bd
:020000040000fa
:0402e80056030000b9
:020000040000fa
:0402ec0056030000b5
:020000040000fa
:0402f00056030000b1
:020000040000fa
:0402f40056030000ad
:020000040000fa
:0402f80056030000a9
:020000040000fa
:0402fc0056030000a5
:020000040000fa
:0403000056030000a0
:020000040000fa
:04030400560300009c
:020000040000fa
:040308005603000098
:020000040000fa
:04030c005603000094
:020000040000fa
:040310005603000090
:020000040000fa
:04031400560300008c
:020000040000fa
:040318005603000088
:020000040000fa
:04031c005603000084
:020000040000fa
:040320005603000080
:020000040000fa
:04032400560300007c
:020000040000fa
:040328005603000078
:020000040000fa
:04032c005603000074
:020000040000fa
:040330005603000070
:020000040000fa
:04033400560300006c
:020000040000fa
:040338005603000068
:020000040000fa
:04033c005603000064
:020000040000fa
:040340005603000060
:020000040000fa
:04034400560300005c
:020000040000fa
:100400004f9e20000eff27000e0188000000000014
:10041000000020000000e000020032000001200087
:10042000200288000e000700802822000100200022
:10043000810f700001003200220007000000200040
:100440000000e00002003200000002000000000096
:10045000061f0200000000000040da000000fe005d
:100460004440a900e00620000000e0000300320044
:1004700000002000a00188004440a8000000060001
:10048000f03fb1000180b10006003500ee03090025
:1004900000000000403fb1000180b100fbff3d00c3
:1004a0001000b000203fb0000200350000800900bd
:1004b00000000000000006008a1f78008b1f7800f3
:1004c0000000060091018800800478000000eb0025
:1004d0001a003700e284440032a0b4009905ba0043
:1004e000e284440032a0b4009906ba00e2844400d9
:1004f00032a0b4000006eb00476fde00fd07b2003b
:10050000636ce10003003a00ebff07000000eb0022
:100510000a003700606ce10004003a00005deb0067
:100520008b05e900fdff3e00040037006168e10033
:10053000010032000086eb000b00070019c7ba006b
:100540001905ba000e04e00003003a000a00e000ba
:10055000e0ff3a0000000600fe07b2009e0188009e
:100560008a047800f5ff3700395dba008b05e90091
:100570000c003200295dba008b05e900080032004a
:100580000c00e00003003a00e284440032a0b40012
:10059000f5ff370019ddba008b05e900faff3a00d4
:1005a0008904e800e184440032a0b40000000600a1
:1005b0006c1a040000000000821a04000000000011
:1005c0000a040400000000005405040000000000bc
:1005d000c20d040000000000000004000000000044
:1005e0003600f800809fbe00829fbe00849fbe0040
:1005f000869fbe000000fa00c140800080022000fb
:100600000088b9008000780040408000808f500052
:1006100002003a0010c0b3000ae8b7004040800072
:10062000610060000000e0000d003a00c0a621005b
:100630000000010000408000700a07003f0b070027
:10064000004088001000200060408800404080008a
:100650000000e800404088008460a9000c003700da
:1006600020a821000000010010408000cb0a0700f4
:100670005c0b0700104088001000200070408800cc
:10068000404080000000e800404088008460a900ed
:100690000080fa004f03be004f02be004f01be00b3
:1006a0004f00be003600f900004006000040da00ae
:1006b0000000fe00889fbe00404180000000e00076
:1006c0000100320000000100504180000000e00005
:1006d0000100320000000100608220001004e000f0
:1006e00022003a00a04e8000b14e80008800200019
:1006f000d260260093012000e9080700f2352f00a0
:10070000e3c6230000004100818049000804e9009d
:10071000f7ff3a00c88220000908200088844400be
:10072000d260260093012000dd080700f2352f007b
:10073000e3c62300000041008180490000acbe00f8
:10074000890f5400f6ff3a00a04e8800b14e880091
:1007500060458000714580006041880071418800db
:1007600011c0b3006082200001487800d2602600ea
:1007700093012000a04e8000b14e8000c808070001
:10078000f2352f00e3c623000002410081824900b8
:10079000a44e8800b54e8800c0822000100078006a
:1007a0007f0160004211dd00008320000201400053
:1007b0001200be0060418800714188000489be00bb
:1007c0000100780000f0a1004f04be000000060008
:1007d000889fbe0000047800404180000000e000d7
:1007e0000100320000000100608220000048eb00a0
:1007f000504180000000e0000100320000000100d4
:100800008004eb00a84e8800b94e88004f04be005b
:1008100000000600889fbe000004780001007800f8
:100820008204780088017800090178001100200016
:1008300049000700890f5000010032000004eb005e
:10084000080078004f04be00000006000000fa0017
:10085000e88157004fb99700818d2000a04020000b
:100860005b0107000080fa0000000600889fbe00c0
:100870008a1f7800000478000800e0000d003a00ac
:1008800068922000700544008004eb005800780056
:100890000000e00004003200f4ff07000000e00068
:1008a00001003d008084eb008a0f5400f7ff3a00fe
:1008b0002500370000002200180060008004eb00d3
:1008c00021003200a80490000f00370009015100f8
:1008d000384090000000fb00890078002d060700da
:1008e0000000e00007003c00280090004004980051
:1008f00060049800500c98001890a0008084eb00d1
:10090000110037008084440048019000828f540019
:10091000eeff39002800900040049800980078000d
:1009200002c020000281600001003a0038009000ff
:1009300001e8a300020032006004980001003700c3
:10094000500c98008004eb00090078004f057800f7
:100950004f04be0000000600889fbe008a9fbe00b4
:100960008c9fbe008e1f780000067800010478007e
:1009700002007800830478000881b900020778003b
:100980000200e000420032000800e00041003200b6
:1009900082057800c900900069009000808f5000a7
:1009a00004003900090078000e0107000000e00093
:1009b0002900350000402000190060000a003200c4
:1009c0000b017800a10020000c0078004c0107000a
:1009d000800678000d00e000060032006105160078
:1009e0000a854600040037000b0578008006eb00fe
:1009f000010037000b05780049009000e9009000e5
:100a0000808050008a8f500002003100010578007c
:100a10008006eb000a0178008c0078004201070094
:100a20008a855500490090000a004000c0049800e3
:100a30000d00e00004003200090078008bff070081
:100a40000000e00004003a000b00e0000200320069
:100a50000a064600cfff3700008020001900600022
:100a6000020032000900780080ff070000c020006b
:100a7000190060000200320049009000e004980074
:100a80008b055700110009008885d8000100370048
:100a90000000eb004f0778004f06be004f05be0078
:100aa0004f04be0000000600889fbe0000047800ce
:100ab0000203be00810478000802780089017800f2
:100ac000120020000600be001e010700890f500022
:100ad000010032000004eb00080078004f04be0063
:100ae000000006006800fa00889fbe008a9fbe00d2
:100af00080047800010478008205780003057800fe
:100b00008400780000f92f000f00400079010700f1
:100b1000d98f9f00fb8f9f000000eb00a09f9f00dc
:100b2000e88f9f009a84fb000904fb008904ea0017
:100b3000cf4cde0050022000800f54000d00320028
:100b4000e18f54000b003a00090178008a00780018
:100b50007f889700df89970003000100f08f9f00d6
:100b60000000e000950032002f9897000000e80098
:100b7000a09f9f000905450050022000800f5400ef
:100b8000040032000800e000e6ff3a002f989700ca
:100b90008b0037000000eb00809f9f00f0979f00c4
:100ba000e0979f00d0979f00c0979f00b0979f004d
:100bb00007003700e19c20000100500000004000c9
:100bc000219c200061007800cf9897000100700000
:100bd000c09f9f000a04780008057800ba44780096
:100be0008900fb00e09c2000440107000000e000b9
:100bf000f0ff3a00a1c2b30081cf54000e003a00ca
:100c00008f8897000180e900808f9f001000780096
:100c1000b09f9f000000e00005003d000000ea00da
:100c2000b09f9f004f9897000020a000c09f9f009a
:100c30000804e80010003700b09f9f00880078008b
:100c40000000eb0005003700f3ff2700830f500082
:100c5000020032006a02b900040041000104780079
:100c6000880078003101fb000203b100e90f510058
:100c7000f5ff3600b09f9f00e0c2b300984f100010
:100c8000020032000080eb0019003700a0c2b30060
:100c9000d84f100007003a008f8897000180e900c4
:100ca000808f9f0010007800909f9f000804e8004c
:100cb000100037000000eb00909f9f008800780034
:100cc00005003700f3ff2700830f500002003200b9
:100cd0006a02b9000400410001047800880078002d
:100ce0003101fb000203b100e90f5100f5ff3600ae
:100cf000909f9f00984478008900fb00a09b2000f3
:100d0000fe0007000000e000020032000804e800d6
:100d1000010037008044eb00a97f9f0080c6b3002c
:100d200080cf540006003a0098cf140010003a001b
:100d300066405000a07f9f000804e8000c003700c8
:100d4000c0c6b30080cf540009003a0098cf140009
:100d500007003a0067404000d84f100002003a00f8
:100d60006e4050000100370010c7b300a07f9f0005
:100d70001801fb00c3fb2f008f81410001f92f00f8
:100d80008f80400020f92f000f004000e70007008f
:100d90000000e00009003a00c1fb2f008f804000f6
:100da00020f92f000f004000f20107000000e000d2
:100db000020035000805e8005aff37000080eb000c
:100dc0004f05be004f04be000080fa000000060080
:100dd000030278008201780001017800415520006b
:100de00040ff3700889fbe008a1f7800000478000b
:100df000c8009000680190000000eb00828f500056
:100e00003c0039001800780022002900020160002f
:100e1000e20f510007003200012020000000e00036
:100e20000100350001202400008c70000080eb00e0
:100e3000300037000200260002006000820f5000e0
:100e400009003a0038009000808f500006003900f9
:100e50000800780085fe0700800078000080eb0025
:100e60000100e00023003a001805780000c02000cf
:100e70000000650018003a00a804900060022000fd
:100e800008004000808f540013003a00002020002a
:100e9000c5020700200498000000e00005003a00a9
:100ea00029049800490498008904e800390498004e
:100eb000080037000a60a0000a0c7800400498007f
:100ec000012020008080400031049800400c9800f0
:100ed000500c9800e0020700280090005004980091
:100ee000380090006004980000002600180c700084
:100ef0000000eb004f0578004f04be000000060024
:100f000003003700b0cf1000050032000201e900f5
:100f1000800178000200e000faff3a0000000500be
:100f2000030078000000060080017800020037000e
:100f3000b15978000201e9000200e000fcff3a002c
:100f400000000600e6874700889fbe008a9fbe001b
:100f50008c9fbe008e1f780082bf9f000404780023
:100f6000029ab900f4b79f000400e0005900320073
:100f70000fb997000200e000570032000006be00e3
:100f800004077800c800900068009000808f50002f
:100f9000040039000800780092ff07000000e0001c
:100fa0003b00350000402000180060000a003200bd
:100fb0008e017800a20020000c00be00b7040700dc
:100fc0000005be0000807500070032008c0455004b
:100fd0008904e800050037008e0478000a0020002c
:100fe0000b002000010037008e04780048019000bb
:100ff0006800900002005000890f5000030031008b
:10100000800478000a0020000b0020006111b80065
:10101000828fd2008381d200090278000c00be00ca
:10102000b904070009075700480090000900400074
:10103000400498000a85750004003200080078001a
:101040000afe07000000e00011003a000e00e00078
:101050000f0032006148b800808fd2008180d2003a
:101060000000780000f0a1008c01d0000001d00049
:10107000028641004220a80081864e004200a9005d
:101080004220ae004200a8000c86d300bdff37000e
:101090000080200018006000020032000800780084
:1010a000f2fd070000c020001800600002003200be
:1010b000c8019000630498007fb097000e075000ad
:1010c0000fb99700110009000287d800800178004d
:1010d000010037008001eb00030078004f07780023
:1010e0004f06be004f05be004f04be006f00b100aa
:1010f000000006000108780000000600020037002a
:101100000304e000060032000001780002007800cd
:10111000b041780081cf5100f9ff3a00010037005b
:101120000001eb000200780000000600889fbe006e
:101130008a9fbe00e4c6b300844f5100be00320057
:1011400010003c006b425200844f510018003200e6
:1011500005003c0054c2b300844f5100f600320039
:1011600084c5b3000f00370044c6b300844f51005c
:101170001400320065424200844f5100f1003a00f1
:101180001000370004c7b300844f5100dd00320067
:101190005600350065424200844f51005300320032
:1011a00063424200844f5100e6003a004f0037008e
:1011b0001181e90082087800a008900012417800af
:1011c000de003700006a9000c5c6b300854f5200ac
:1011d00007003a0091027800648252008408780087
:1011e0001402be004fabde00860378001400370007
:1011f00015c7b300854f520003003a001104780070
:101200006802540005003700a5c6b300854f5200a0
:1012100006003a009104780068825400840878003f
:101220005403be004402be00050037001182e900ed
:101230008408780014027800cfa2de00612bb90088
:101240000498be000690be008068900088c6b30077
:1012500088cf50000d00320028c6b30088cf500060
:1012600004003a000402fb00cfa2de00612bb900ab
:101270000800370048c7b30088cf50000300320091
:101280006644440088cf500004003a00cfa2de003c
:10129000612bb9000498be000690be003002be006b
:1012a0002003be00a0089000e00f5200e08f5a001b
:1012b000e00f5b00e08f5b0002003d00d4c2b30092
:1012c00008003700301290000418a300020032001a
:1012d000b4c2b300030037000408a3005100320079
:1012e00004c2b30084f178004c003700006a90001b
:1012f000c5c6b300854f520008003a0011057800ba
:1013000064025500840878001404be006055b800db
:101310000802be000a03be001400370015c7b30060
:10132000854f520003003a0091047800688254000f
:1013300005003700a5c6b300854f520006003a00ed
:101340001105780068025500840878005403be0037
:101350004402be00050037001182e90084087800cd
:10136000140278008002eb006033b8000498be00dd
:101370000690be008068900088c6b30088cf5000f9
:101380000d00320028c6b30088cf500004003a0098
:101390000482fb008002eb006033b80008003700d5
:1013a00048c7b30088cf50000300320066444400b1
:1013b00088cf500004003a008002eb006033b80090
:1013c0000498be000690be00b01090000138a30043
:1013d000140032003002be002003be00e00f5200b5
:1013e000e08f5a00e00f5b00e08f5b000d003200e1
:1013f00081c7b300814f51000300320081c5b300a3
:10140000814f510007003a00a008900004c3b300c8
:1014100084f178008100e80082f178008100e80022
:1014200021089800a0089000818141007300980075
:10143000824078003e00370080699000c4c6b30047
:101440001181e90084cf5100220032000a003c00e3
:101450006442520084cf51002500320004c2e800eb
:1014600084cf5100130032006842520084cf5100f3
:101470001e003a000a00370044c7b30084cf510071
:101480001b0032006642420084cf51001800320037
:101490006942520084cf510014003a000500370021
:1014a00082087800920078002060900080487800e0
:1014b0002c0037008208780092007800101290000b
:1014c000cfa2de00612bb9008498be008690be00da
:1014d00024003700820878009200780010119000f4
:1014e000cf91de008288be001e0037001181e90026
:1014f0008208780092007800101090008008780030
:10150000180037001181e900820878001202780083
:10151000cfa2de00612bb9000498be000690be0089
:10152000a0089000818141007300980081c7b3003a
:101530009f0107000b003700a008900082f178009f
:1015400006003700a0089000818141000204e000fd
:1015500001003a0052c2b300824978008100e800dd
:10156000210898000000eb004f05be004f04be00ac
:10157000000006000400fa00889fbe008a9fbe009b
:101580008c1f78000004780001067800a8149000f1
:10159000280890008084540038089000808454000b
:1015a00048089000808454005808900080845400bb
:1015b000680890008084540078089000808454006b
:1015c0000002220090bf9f0000032300a0bf9f00e5
:1015d000381090000028a30015003a000900e00030
:1015e00013003400090578008a057800e20f5500e1
:1015f000010036002b002000c80190000b0178008c
:10160000ee8057006800900003000100600498001d
:101610000000e000aa003200181090000b0040000b
:10162000101498000b0555004240a900eeff3c0045
:10163000280990000200e0000c003400c80190006e
:101640008c0078006800900003000100600498009e
:101650008080eb000000e0009a00320098109000bb
:10166000280890000080400010149800380d900069
:101670000a00e000110034008a057800e20f5500ee
:10168000010036002b002000c80190000b017800fb
:10169000ec8057006800900003000100600498008f
:1016a0000000e00086003200181090000b0040009f
:1016b000101498000b055500edff370008699000e5
:1016c000c808900050c6b300804f510008003a008f
:1016d0000100e00015003400580290000809900055
:1016e000980990006800900004000100070037008e
:1016f0000100e0000d003400c801900001017800f5
:10170000f800900068009000030001006004980059
:101710008080eb000000e0006a003200981090002a
:10172000480890000080400010149800580d900068
:101730000a00e000110034008a057800e20f55002d
:10174000010036002b002000c80190000b0178003a
:10175000ec805700680090000300010060049800ce
:101760000000e00056003200181090000b0040000e
:10177000101498000b055500edff37000869900024
:101780006808900051c6b300814f51000d003a0027
:101790000000e0001c00340078019000c8089000b0
:1017a000010141006111b800828fd2008381d20013
:1017b000580290008000780068009000040001004a
:1017c000090037000000e0000f00340078019000ad
:1017d000c808900081004100c80190000001780015
:1017e0006800900003000100600498008080eb0016
:1017f0000000e0003300320098109000680890006c
:101800000080400010149800780d90000a00e0005d
:10181000110034008a057800e20f550001003600ff
:101820002b002000c80190000b017800ec805700cd
:101830006800900003000100600498000000e000d0
:101840001f003200181090000b0040001014980088
:101850000b055500edff3700381090008000eb00bd
:101860000028a300170032000900e0001500340032
:1018700009057800e28f5400010036002a0020009c
:10188000c80190000a017800ee80570068009000bf
:1018900003000100600498000000e000080032002e
:1018a000181090000a004000101498008a84540018
:1018b0004240a900eeff3c008000eb000100370031
:1018c0008080eb00010078004f0678004f05be00d5
:1018d0004f04be000080fa0000000600889fbe0092
:1018e00000047800c14e80000100e00002003200d8
:1018f000010078000d003700d14e8000a09d20002f
:1019000004003700910f5400250036000180e800e4
:10191000910090000100e000faff3a00100037004b
:10192000920f54001e0036000280e800100178007b
:101930000200e000faff3a0011017800d14e800069
:10194000a09d200004003700910f540014003600c1
:101950000180e80091009000828f5000faff3a0069
:10196000f94e8000888f540001003100880478000f
:1019700009007800bd0107000000e00004003a0003
:10198000888f5400050032008904d100f5ff37002c
:1019900009187800bf010700d2ff37000000eb00f4
:1019a0004f04be0000000600881f7800630440005a
:1019b0000800a1008000eb00800f540021003600d9
:1019c000e30f540001003e004800200008007800aa
:1019d000c2ff07008000eb000000e00019003200a9
:1019e000900078009101780064815100880f5100c7
:1019f0000300310011019000020878000700370051
:101a000008814000020878009101900013019800bd
:101a1000100178001109140088087800100178007e
:101a20000000eb000200e000040032009201900090
:101a30000300e000010032000280e800c04e880090
:101a40008180e800010078004f0478000000060063
:101a500020dc2000c1013700881f7800089e20008c
:101a60001804e00003003a00f9ff070020c0b300ab
:101a7000004c78004f04780000000600889fbe00ec
:101a8000000478000800780078fb070080047800e4
:101a900000042000180060000200320028009000be
:101aa0007c0107000000eb00200498003840900003
:101ab0000004e000050035000000fb0031020700d3
:101ac0000000e000010032008084eb00181090005c
:101ad0000000e00008003200350207000000e000ce
:101ae000010032008084eb001810900069010700ab
:101af0000000eb001014980000082000180060009f
:101b00000f003200619220000000eb00d10f1400a2
:101b100005003a0000004000819220000080400053
:101b20000008eb00030037000000e800e80f500059
:101b3000f6ff3a0008007800560107000e00370053
:101b4000000c780000c0eb003044980060022000d8
:101b500008004000200498004004980050049800b9
:101b6000400c980060049800500c98007004980095
:101b700076004400000c9800090078004f04be0075
:101b800000000600889fbe0088932000f0045400e7
:101b9000480078000000e00001003200b7ff0700b5
:101ba000890f5400faff3a004f04be0000000600ff
:101bb000fc874700889fbe008a9fbe008c9fbe00a6
:101bc0008e1f78000006780080c5b30080cf5000db
:101bd0000a0032007740400080cf50000a003200f7
:101be0006940400080cf50000b00320090982000e8
:101bf00080bf9f00ae0020000a00370082972000bf
:101c000082bf9f00060037009398200083bf9f008b
:101c10008e002000030037009498200084bf9f00ae
:101c20000e0120003c02be002c03be000605be00d3
:101c30000404be0040c6b30080cf50000300320051
:101c40006540400080cf50000b003a00e00f52008a
:101c5000e08f5a00e00f5b00e08f5b0006003d0064
:101c60006000b8006011b80004045000858458007a
:101c70000605590087855900e80f57000400320017
:101c800040002000f00f570038003a0001003700f4
:101c900030002000e00f5400e08f5c00e00f5d009a
:101ca000e08f5d0004003a008c1090008d01200050
:101cb0000100e000060032008e00e900888060002c
:101cc0008fba9700e5c07800f1ef9f007d012000fa
:101cd000800078008100e900050033008b05d10009
:101ce0000a85d3008984d3000884d300f9ff370024
:101cf000089ebe000a96be00120037008d06e9005d
:101d00008e00e900848060000fb99700e2c178007e
:101d100082fd2f000f01410003f17e00800078005a
:101d20008100e900050033008783d1000683d300da
:101d30008582d3000482d300f9ff3700049ebe00e1
:101d40000696be003c02be002c03be00e00f52000f
:101d5000e08f5a00e00f5b00e08f5b008b003400e7
:101d60000d00e000e5ff3c00880037000c689000a3
:101d700081c6b300814f50000b00320006003c00ca
:101d80000004e00008003200e6c05000814f50001f
:101d90004e003a0004003700c1c6b300814f500026
:101da0004a003a00210037000800e00004003a0031
:101db0000c1090008d0120000000e00006003200b1
:101dc000110009000e84d8000fb99700e2c0780016
:101dd000f1ef9f007d012000110009000e84d80062
:101de0000a003700110009000e04d8008d06e90032
:101df0000e81b900020454008fb8970061417c0045
:101e000081fd2f008f80400082f07e00000478006a
:101e10000800e000020032000d00e000f1ff3c008d
:101e2000cfc4de00614db90025003700e00f54003b
:101e3000e08f5c0004003a000c1090008d0120003f
:101e40000000e000070032006171b9000800be0028
:101e5000190307008fb99700e3417800f3ef9f0063
:101e60007d0120006171b9000800be001503070064
:101e70000b0037006171b9000800be0021030700a4
:101e80008d06e90000f1b900020454000fba970072
:101e9000e4427c0084fd2f000f02420005f27e0028
:101ea0000004be00e00f5000e08f58000200320036
:101eb0000d00e000efff3c004fcdde008a0578000a
:101ec000089ebe000a96be0030003700e00f5400a6
:101ed000e08f5c00e00f5d00e08f5d0004003a00e1
:101ee0000c1090008d0120000000e000090032007d
:101ef0006172b900612bb9000800be000a01be0082
:101f00007e0307000fba970064427800f4ef9f0049
:101f10007d0120006172b900612bb9000800be008c
:101f20000a01be006e0307000d0037006172b900a0
:101f3000612bb9000800be000a01be007303070050
:101f40008d06e90000f2b900040454008fba97002e
:101f500065427c0085fd2f008f82420084f27e0066
:101f6000009ebe000296be003c04be002c05be00d2
:101f7000e00f5400e08f5c00e00f5d00e08f5d003b
:101f8000020034000d00e000e8ff3c00e80f5700bd
:101f900010003a003c1090000038a3000d00320001
:101fa000f78f560006003e0085fd2f008f8242000d
:101fb000e5c07e0000c3b30080cf500005003200b2
:101fc0008d06e90002c3b30081fd2f008f80400021
:101fd00082f07e0078811600420e98007c0090000e
:101fe00083fd2f008f8141008d804100cefb0700d3
:101ff0004c0890008c109000810f500006003d00ae
:1020000000805000300e98003c1090000040a1006d
:10201000301698000f0037000100e0000d003d0071
:10202000bc109000f4806000f08f500009003a006e
:102030002c119000ac089000810051003c099000e8
:1020400082805000008050004240a900010034000e
:10205000300e98004f0778004f06be004f05be00b7
:102060004f04be00cf01b1000000060080007800e0
:102070000000eb000100e0000500340001007800e2
:10208000d4000700e10f400001003a000000eb001f
:10209000000006000000e0002f003200c0017800c0
:1020a000e38f51002c0036000308a3002a003a00f9
:1020b000d14e80000100e00002003200810f50008c
:1020c0000400310011009800d04e8800160037003f
:1020d00082007800110190000200e000020032004e
:1020e000800f5100faff390011027800848240000d
:1020f000850f500018003900808f520003003a000d
:102100008308420001007800070037000200e00069
:102110000300320083014000830f51000e0039009c
:102120001200980090009800900090000100e000dc
:102130000900320010014000828f500006003a0072
:10214000829d20000009eb00100178001108410079
:10215000910090001100980000000600010020008e
:102160000100e00008003200010080000100e000f2
:10217000050032008100e9000100880081804000f4
:102180000200800000b178000000060000c0da0004
:10219000000006000a00fa00e20f500034003e0082
:1021a000e04e8000e10f500003003200e20f5000cb
:1021b00011003a000c003700032220000300e00069
:1021c00001003a000040da002002e200020035007f
:1021d0002822ef0021e2a8002342ab000d003a00c4
:1021e0002342a8000b003700032320000300e00077
:1021f00001003a000040da003002e200020035003f
:102200003822ef0031e2a8003342ab0001003a006f
:102210003342a800820178000b0037003102fb0036
:10222000e10f500004003a002322ab00feff3a0009
:1022300024118800030037003322ab00feff3a0070
:10224000a41188008301e9000300e000f3ff3a00d5
:10225000e10f500003003a002302ab00feff320002
:102260000b0037003302ab00feff320008003700de
:1022700033002000b3bf9f00c0bf9f00d1bf9f00ad
:10228000e2bf9f006a805700c0ff07006fb9970048
:10229000020078000080fa00000006000300e00061
:1022a00007003200a5018000a101880010427800db
:1022b000a50188000402fb00820f520011003200c9
:1022c0008301e900a5018000a10188001042780087
:1022d000a50188000404e000080032000002780034
:1022e0001000b00000026a004260af0000f0a000e1
:1022f0000482d2000180b000e8ff37000000200017
:1023000001002000000006003400f8000203be00b7
:10231000820270008502720002f0a60000f0a600a2
:102320008100e800a10188001500b2000800320019
:10233000105978000402e9000d00320061004000ed
:10234000fbff39003420ec0000002800f8ff3700c4
:10235000101978000482e900050032006200400094
:10236000fbff39003420ec0000002800f8ff3700a4
:102370003400f9000601be000000060000c0da00cb
:10238000000006000a00fa0011002000b1bf9f0003
:10239000c0bf9f006a805700f8ff07004fb8970042
:1023a0000080fa000000060000c0da00000006000d
:1023b0000a00fa0051002000b1bf9f00c0bf9f007b
:1023c0006a805700f8ff07005fb897000080fa00a6
:1023d00000000600889fbe0080047800104f800037
:1023e0000000e00004003a000e0007000084eb004b
:1023f0000000e00008003500184f80000900e000f0
:102400000500320009004400060007000000e0005b
:1024100001003d000084eb00080078004f04be007e
:1024200000000600800078000100e00003003a0090
:1024300000002000104f8800000005000080eb0025
:1024400002002000828f500002003e00114f8800e1
:102450000000eb00000006006011b800f300370038
:10246000889fbe008a9fbe008c1f78001e01070057
:102470002501330003866c006450e1002400320023
:102480006420e100270032006150e10022003200a8
:102490006120e100210032008b854200eb07b10092
:1024a0000134b800003ab8000804420089844a00a8
:1024b000013ab8000030b8008880400009014a00a5
:1024c0000400330000004000818048000201490000
:1024d0008b05e900c909dd008301700001003200ad
:1024e00013002000c814de004814dd004709de0098
:1024f0001200b200c808de00088470001201070054
:1025000001f0a1000cf0a70001f0a00007013700c6
:102510006120e100090132000801be000200be0096
:10252000f7ff37006150e100fcff3a00030137007c
:1025300003f0a200889fbe008a9fbe008c1f780017
:10254000e9000700f00033006450e1004f00320062
:102550006420e1005200320003826c0007003b005f
:102560000905d0000306d000820f54000c065d0060
:102570000200390002003200890178000306780069
:102580008582550004003d000003fd008103fd002d
:102590008502ea008b854200840f720002003b0036
:1025a00060001000e08018006011b8000005eb002a
:1025b0007a28e1000a00390006007800c75ddd00d6
:1025c000f707b200878075002d0037008281710007
:1025d0000a017800610560008180d1000080d3008d
:1025e0008502e900f9ff3b000604400087844800ab
:1025f00002003b0060041400e0841c000988a30072
:10260000070032008a8171008281710061016400db
:102610008904d1000884d3008b05e8001700370037
:102620000978a30013003a000b00e0001300340007
:102630008b05e9000804440089844c000a447400b6
:102640000978a3000d003a000b00e00007003400f9
:102650008b05e9000804440089844c0001003a001d
:102660000b0020000978a300f7ff32000001eb0007
:1026700002003700828171000a017800b200070071
:102680000cf0a70001f0a000a80037006420e100d2
:1026900002003a00838f6c00a80033000801be00de
:1026a0000200be00a100370014002000cc0037005b
:1026b000f4ff2f00ca0037000001be00e30007004e
:1026c0000470a70003f0a10003f8a30013003a0070
:1026d0006509b10010003200090035006928e100e9
:1026e0000200350001002800000005000000400045
:1026f000818048008502e900fcff3a0000000600e6
:10270000f88f4200050035008100d1000080d30021
:102710008502e800fcff3a00000006008000eb00a4
:1027200000000500889fbe008a9fbe008c1f7800b5
:102730006d0007007400330003866c006450e100f4
:102740002e0032006420e100330032006150e100cd
:102750002f0032006120e1003100320085855500f4
:10276000eb07b00009002000080420000500370036
:102770000804440089844c000a0031000603430029
:1027800087834b000001530081815b00f8ff330019
:102790000203be000800a0000804440089844c0025
:1027a000f6ff3900c639dd008301730001003200f5
:1027b000130020008904d1000884d3000998a300e5
:1027c000050032000800a7000300a0008904d10022
:1027d0000884d3008b05e8008904d1000884d30065
:1027e0000001eb000281d2005700070001f0a100b8
:1027f0000cf0a70001f0a0004c0037006420e100bd
:102800004e0032000801be000200be00f7ff370094
:102810006120e100490032006000b800f3ff37009a
:102820000000200001f82700f0ff3700889fbe005d
:102830008a9fbe0000827000040271000482710051
:10284000260032000004be000200be006011b80085
:102850006b092000950220000182cf000a00390098
:102860000541b1000082cf00070039000541b100e9
:102870000982cf00040039000541b1000882cf0071
:10288000010039000541b10005425200120032003a
:102890000a003b0082817100610164008100d10067
:1028a0000080d3008984d3000884d3008b05e8001e
:1028b0000442e800f7ff3a0007003700080444002c
:1028c00089844c0000004800818048008b05e900a5
:1028d0000442e900f9ff3a001b0007004f05be0063
:1028e0004f04be00000006000004be0057000700b1
:1028f0000003be000405be000200be005300070036
:10290000844f7500000006000200be006450e10024
:10291000050036006420e100020036000968a300cb
:1029200001003a000800be000160a0004f067800d8
:102930004f05be004f04be0000000600f0ff2f0050
:10294000f1ff2700f9ff370081002000618055006a
:102950000b003d000b00200061fe2f000100e10094
:102960001d00340082817100610164008904d1007e
:102970000884d3000000e800faff3a00710020004c
:102980006100640003007000020060000900320072
:1029900061044400e0844c000988a5000500320071
:1029a0008b05e8006808e10002003a008904d100c4
:1029b0000884d300f20f20000258e10005003d001a
:1029c000c75ddd00f907b200898075000800780056
:1029d000000006000bf827008b00780000000500bf
:1029e000889fbe008a9fbe00841f7800beff07003c
:1029f0004f00780011003300f0ff2f00838f6c0030
:102a000006003b00040565000a00a7000800370027
:102a100009f0a6001000200008003700820f5400c3
:102a2000838f5c00030039001000200001003e008d
:102a30000000200009f0a7000000ea004f05be00da
:102a40004f04be000000e00000000600c70ade00e0
:102a5000f107b200f50fb20008003200e1cf4200ea
:102a6000020032000170a00024000500810f7000f8
:102a7000010032000408050044000500810f7000c9
:102a800002003a00140005008502e9000000400041
:102a900081c04800fcff3b000170a000240005003d
:102aa000020ab900001bb9000200b8008100420010
:102ab0008100430000000600020007000400be0081
:102ac000000006006022b800060220000000d000ce
:102ad0008180d2000482d2008582d2000000a00052
:102ae0000202520083825a000300310002024200b7
:102af00083824a000000a1000603e900f3ff3a00c8
:102b000000000600839f68000100e00002003d0015
:102b100060001000e08018000300e00002003d00ab
:102b200060011100e0811900e6ff07004f00e0009e
:102b300002003b0060001000e0801800000006006a
:102b4000889fbe008a9fbe0030044200b0844a00c5
:102b500030054b0090854b006000b1000898be0026
:102b60000a90be00c100070002003100680040006a
:102b70001008e8004f05be004f04be00000006002c
:102b8000889fbe008a9fbe003004be002005be00a4
:102b90000418540005985c0006185d0007985d0055
:102ba00011002000b1000700010039008000eb0097
:102bb000108810004f05be004f04be000000060044
:102bc0001200fa00889fbe008a9fbe008c9fbe0044
:102bd000e0b79f00f1b79f0082bf9f0093bf9f00a7
:102be0000605be000404be000000eb00d0b79f0045
:102bf000c0b79f00b0b79f00a0b79f0090b79f00dd
:102c0000000678005fb19700cfb0970082014100c5
:102c10003fb097000200e00004003d00980007006c
:102c20007e805700c6ff07000300370094000700ae
:102c30007e805700d2ff0700dfb697000d00e0004e
:102c40000c0035006fb29700ffb297000fbb9700e2
:102c50009fbb970010002000010020006011b80009
:102c6000000272008182720002037300838373008a
:102c7000580007000c06e80001042000810f5600f0
:102c8000e0ff3a000d00e00004003d000802be0035
:102c90000a03be007e805700a9ff07005fa89700c7
:102ca0000000e00005003a001fb29700afb29700a5
:102cb0003fb39700cfb39700460007006fb097006f
:102cc000ffb097000fb997009fb997004f06be005d
:102cd0004f05be004f04be000080fa000000060051
:102ce000881f780018002000881f7800b4ff0700b4
:102cf0008f87e9004f04780000000600801feb007a
:102d0000afff07008f87e90000000600889fbe0024
:102d10008a9fbe003d00070007003d0040000700fd
:102d2000180020004500070008003d002b000700a8
:102d30000004eb00050037000004eb003f00070033
:102d400002003d002500070018002000e4ff0700f6
:102d50000800e000010032003d0007004f05be0002
:102d60004f04be0000000600889fbe008a9fbe0080
:102d70008c1f78002500070008003d002800070090
:102d80001c0020000820e10009a8e1000ab0e100d1
:102d90000bb8e10007003d00050037000006eb001e
:102da0002600070003003d006044b8006055b800ed
:102db0000c000700d1ff07000c00e000010032000a
:102dc000230007004f0678004f05be004f04be00e9
:102dd0000000060008000700000006006044b8007c
:102de0006055b8000402540085825c0006035d0053
:102df00087835d0000000600a4b79f00b5b79f0061
:102e0000c6b79f00d7b79f0000000600e00f500034
:102e1000e08f5800e00f5900e08f590000000600d5
:102e20006044b8006055b8000000540081805c0028
:102e300002015d0083815d0000000600e00f52008a
:102e4000e08f5a00e00f5b00e08f5b00000006009f
:102e50006022b8006033b8000000520081805a0040
:102e600002015b0083815b00000006000440e1007a
:102e700005c8e10006d0e10007d8e1000000060027
:102e80004f09de0082817100b3b79f004f01de0061
:102e90008180400082807000a1b79f008fb09700b2
:102ea0004f09de00000040000200700090b79f0054
:102eb0007fa897004f01de00818040008280700073
:102ec00081b79f000d0007004f3ade000000400070
:102ed00004007000f0af9f000800070004024200e9
:102ee00085824a0006034b0087834b00c2ff070020
:102ef0000802be000a03be00000006002fb29700c1
:102f0000bfb297004fb39700dfb3970000000600f1
:102f1000421188000011880011118800000006008d
:020000040000fa
:102f200050310000205000007265000073730000f3
:102f3000207400006f2000007374000061720000b4
:102f4000742e00000050000032200000507200007b
:102f50006573000073200000746f00002073000090
:102f600074610000727400002e00000050310000f7
:102f700020530000636f000072650000203a0000db
:102f800020250000640000005032000020530000a3
:102f9000636f000072650000203a000020250000e9
:102fa000640000005031000020570000696e0000ee
:102fb000212100000050000032200000576900006d
:102fc0006e210000210000004472000061770000c3
:102fd00021210000005000007265000073730000a2
:102fe000207400006f200000726500007374000000
:0c2ff00061720000742e00000000000060
:020000040000fa
:102ffc000c00fa00500798006000b800008fbe006b
:10300c000000eb00200798000000eb003007980050
:10301c000000eb00400798003000200030079800bb
:10302c00190037003e0090000000e900c200dd00ee
:10303c0080932000008040001000be003e019000f4
:10304c00c211dd0082932000028141000089be0084
:10305c003e0090000000e900c200dd0080942000da
:10306c00008040001000be003e019000c211dd0047
:10307c0082942000028141000089be003e00900035
:10308c000000e900300798003e0090000000e000ce
:10309c00e4ff3c005e0090008000eb00ebfc0700be
:1030ac00c0498800d14988000000eb002007980037
:1030bc00140037002e009000c200dd00a09a200002
:1030cc00008040001002be002e009000c200dd0007
:1030dc0080932000008040001000be000001be0064
:1030ec000400be00dbfc07000001be001e00be0099
:1030fc000dfd0700008fbe002e0090000000e800c0
:10310c00200798002e009000e30f5000e9ff3400d8
:10311c001000200040079800140037004e0090006b
:10312c00c200dd00a0992000008040001002be000b
:10313c004e009000c200dd00809420000080400012
:10314c001000be000001be000400be00c1fc070060
:10315c000001be001e00be00f2fc0700008fbe0086
:10316c004e0090000000e800400798004e009000d0
:10317c00e30f5000e9ff34001e01be00424a8800f4
:10318c00534a88001e00be000080fa0000000600b2
:10319c000c00fa00500798006000b800008fbe00c9
:1031ac000000eb00200798000000eb0030079800af
:1031bc000000eb004007980030002000300798001a
:1031cc00190037003e0090000000e900c200dd004d
:1031dc0080952000008040001000be003e01900051
:1031ec00c211dd0082952000028141000089be00e1
:1031fc003e0090000000e900c200dd008096200037
:10320c00008040001000be003e019000c211dd00a5
:10321c0082962000028141000089be003e00900091
:10322c000000e900300798003e0090000000e0002c
:10323c00e4ff3c005e0090008000eb0083fc070084
:10324c00c04a8800d14a88000000eb002007980093
:10325c00140037002e009000c200dd00a09a200060
:10326c00008040001002be002e009000c200dd0065
:10327c0080952000008040001000be000001be00c0
:10328c000400be0073fc07000001be001e00be005f
:10329c00a5fc0700008fbe002e0090000000e80087
:1032ac00200798002e009000e30f5000e9ff340037
:1032bc001000200040079800140037004e009000ca
:1032cc00c200dd00a0992000008040001002be006a
:1032dc004e009000c200dd0080962000008040006f
:1032ec001000be000001be000400be0059fc070027
:1032fc000001be001e00be008afc0700008fbe004d
:10330c004e0090000000e800400798004e0090002e
:10331c00e30f5000e9ff34001e01be00424b880051
:10332c00534b88001e00be000080fa00000006000f
:10333c000600fa00881f78001007980021079800f3
:10334c00f04080008000eb0040fc070018c0b30088
:10335c001e019000ae019000d0fc07000000e000c0
:10336c00010035000044eb000804e00003003200cb
:10337c00f1408000010f78001300370010418000ed
:10338c008000eb0031fc070018c0b3001e01900058
:10339c00ae019000c3fc07000000e00001003c00ff
:1033ac000044eb000804e0000300320011418000ef
:1033bc00010f7800040037001e009000ae00900052
:1033cc00bafc0700000f78001e0078004f0478004c
:1033dc000080fa00000006000600fa00881f780042
:1033ec001007980021079800004180008000eb0036
:1033fc0016fc070018c0b3001e019000ae0190002f
:10340c00a6fc07000000e000010035000044eb00c2
:10341c000804e0000300320001418000010f780035
:10342c0013003700204180008000eb0007fc0700f0
:10343c0018c0b3001e019000ae01900099fc07006b
:10344c000000e00001003c000044eb000804e00038
:10345c000300320021418000010f78000400370086
:10346c001e009000ae00900090fc0700000f78004a
:10347c001e0078004f0478000080fa00000006005f
:10348c000000fa00d1408000b04080000080500065
:10349c00d0408800e1408000b040800000805000a7
:1034ac00e040880021408000b04080000080400057
:1034bc002040880031408000b040800000804000f7
:1034cc00304088000080fa00000006000000fa007e
:1034dc00dd04070010c0b300f004070000e02e006c
:1034ec0021002000e3f307000a05070000408800d4
:1034fc000080fa00000006000000fa00d204070069
:10350c0020c0b300e504070000e02e0021002000dd
:10351c00d8f30700ff040700104088000080fa0071
:10352c00000006000000fa0005e1a9000421a90032
:10353c0004c1a9000021ef00210880000003200035
:10354c000100700020088800204e20001008880020
:10355c0021058000f0ff28000080600000c0a00062
:10356c00200588008460a9009460a8000080fa00ff
:10357c00000006000000fa0005e1a8000080fa0037
:10358c00000006000000fa0005e1a9000080fa0026
:10359c00000006000a00fa001007980021079800a6
:1035ac0032079800430798000000eb00000f7800ea
:1035bc00130037001e0078004200dd009e009000d2
:1035cc0000804000900078003e009000808f5000fa
:1035dc000a003a001e0078004200dd009e009000b8
:1035ec0000804000900090004e009000808f5000b2
:1035fc0002003a000000eb00060037001e0fe80046
:10360c002e0090009e007800808f5000e9ff39005a
:10361c00100020000080fa00000006000400fa00f0
:10362c00000f7800110798001ff407008000780045
:10363c001e0090001e0050000000e8000001780001
:10364c00110009008280d8008000fd001e0040009f
:10365c000080fa00000006000a00fa00300798000b
:10366c00410798000008800056f407000000eb00aa
:10367c00000f780017003700d140800020408000f8
:10368c00e6ff070010079800e14080003040800002
:10369c00e2ff0700200798001e019000ae01900089
:1036ac009e0078004e009000baff0700e10f50001a
:1036bc0008003a001e0078004200dd00ce009000a9
:1036cc00008040001e019000ae0190000288be00f8
:1036dc001e0fe8003e0090009e007800808f500086
:1036ec00e5ff39000080fa00000006000400fa0033
:1036fc00889fbe008a9fbe008c1f78000006780051
:10370c00f140800000408000008050008000eb0001
:10371c004efb07000004be00d1408000204080001a
:10372c00008050008000eb0048fb07000005be0045
:10373c000141800020418000008050008000eb009f
:10374c0042fb07000001be000a00be00f2fb0700ae
:10375c000001be000800be003efb07000004be00d6
:10376c00204080008000eb0038fb07000001be0009
:10377c000800be006cfb0700ccfb070000007800c3
:10378c00000f780001418000104080000080500044
:10379c008000eb002dfb07000004be00e140800020
:1037ac0030408000008050008000eb0027fb0700b9
:1037bc000005be00014180002041800000805000c7
:1037cc008000eb0021fb07000001be000a00be00d8
:1037dc00d1fb07000001be000800be001dfb070066
:1037ec000004be00304080008000eb0017fb070097
:1037fc000001be000800be004bfb0700abfb07003e
:10380c0000007800100798003e1e78002e167800f5
:10381c000c0078004f0678004f05be004f04be0028
:10382c000080fa00000006001c00fa00889fbe0011
:10383c00500f98000f0478000f0078008004780077
:10384c000a68ef000040eb00ad0107000000eb0040
:10385c00100f98000000eb00200f98000000eb0008
:10386c00300f98000000eb00400f980012418000d0
:10387c002341800002408800134088000000eb00c8
:10388c00000f7800a0408000800078008100e900e3
:10389c00310798004200dd000000e8000000e8005d
:1038ac000000d100800040000f00780081874700a5
:1038bc000000e8000000d100000040004007980024
:1038cc000040eb008e010700ce009000a04080006d
:1038dc0061ff07000000eb00100798001a0037008a
:1038ec00ce0090001e0090004200dd000080e80039
:1038fc006100780080017800ce0090001e009000de
:10390c004200dd006100780000017800ce009000dc
:10391c001e0090004200dd000080e800610078008d
:10392c00800078004e0290001e0090004200dd00e6
:10393c006400780014002000330207001e00900081
:10394c000000e800100798009e009000a040800046
:10395c00808f5000e2ff39000828ef006500370027
:10396c007200470061ff07009e089000b040800085
:10397c0000805000500798009e089000b0408000d6
:10398c000080400060079800ae089000b0408000b6
:10399c000080500070079800ae089000b040800086
:1039ac0000804000000f98000000eb0020079800fa
:1039bc002f003700ce0090002e0090004200dd005a
:1039cc00e10078005e009000808f500025003900e7
:1039dc00ce0090002e0090004200dd000080e80038
:1039ec00e10078007e009000808f50001d003900af
:1039fc00ce0090002e0090004200dd00e100780027
:103a0c006e009000808f500016003e00ce0090009b
:103a1c002e0090004200dd000080e800e1007800fc
:103a2c000e089000808f50000e003e00ce009000db
:103a3c002e0090004200dd0000804000810c200030
:103a4c0001087800ce0090002e0090004200dd00ae
:103a5c00008040000080e800810c20000108780004
:103a6c001e0fe8002e0090000000e80020079800d0
:103a7c00ae009000a0408000808f5000cdff390038
:103a8c008e0990006e019000fe0090005e00900088
:103a9c0014002000dc0107001e099000ae09900004
:103aac00320f9800430f98000040260001002000c0
:103abc0070f20700ce089000b040800000804000fb
:103acc0080017800be089000b0408000008040006b
:103adc0000017800ce089000b040800000805000bb
:103aec00800078003e0a9000b04080000000520038
:103afc0040010700a04080009e007800808f50009d
:103b0c00030031000ac8bf000004e00094ff32003b
:103b1c005e089000e10f500003003a009e0178000f
:103b2c0083408800050037005e089000e20f5000cb
:103b3c0002003a009e0078009140880089077800c6
:103b4c00880778004f04be000080fa0000000600d1
:103b5c000400fa000040eb00004f78000040eb003e
:103b6c00204798000040eb00104798009e407800da
:103b7c0021479800d11680000010200000806000c2
:103b8c0000f0a7000000ea000000e9004f00de0092
:103b9c00004f78002e4090009e40780080cf50005f
:103bac00090032001e409000e84f50000300360020
:103bbc001e407800e14f50000a0032000040eb003c
:103bcc0010479800030037001e4090000040e800aa
:103bdc0010479800008028003101200025f20700d2
:103bec00e2ff3700000000000080fa000000060031
:103bfc000000fa000040eb00c100070080c1b300d8
:103c0c00bf0007000040eb009900070090c1b30013
:103c1c00bb0007000040eb0095000700007929006d
:103c2c00801f780006f307008f87e900808d200045
:103c3c000bf30700c6ff07004efe07001000200024
:103c4c00f9fe07004ffe07000040eb00ac00070038
:103c5c0080c1b300aa0007000040eb0084000700fd
:103c6c0090c1b300a60007000040eb0080000700e5
:103c7c00307a2900801f7800f1f207008f87e90065
:103c8c00808d2000f6f20700b1ff070039fe070017
:103c9c0020002000e4fe07003afe07000040eb0085
:103cac009700070080c1b300950007000040eb00af
:103cbc006f00070090c1b300910007000040eb00bb
:103ccc006b00070080408000801f7800607b29001b
:103cdc00801f7800daf20700e4875700808d2000ff
:103cec00dff2070080c1b300850007000040eb0045
:103cfc005f00070090c1b3008100070080c0b300d3
:103d0c005b00070090408000801f7800407c2900f9
:103d1c00801f7800caf20700e4875700808d2000ce
:103d2c00cff2070080c1b300750007000040eb0024
:103d3c004f00070090c1b3007100070000c1b30031
:103d4c004b0007008140800090408000808f500025
:103d5c0007003600207d2900801f7800b8f207008c
:103d6c008f87e900808d2000bdf20700110037001d
:103d7c008140800090408000808f5000070031000f
:103d8c00b07d2900801f7800adf207008f87e90015
:103d9c00808d2000b2f2070006003700407e29001b
:103dac00801f7800a6f207008f87e900808d200025
:103dbc00abf2070080c1b300510007000040eb00dc
:103dcc002b00070090c1b3004d00070000c3b300e7
:103ddc0027000700b07e2900801f780098f20700aa
:103dec008f87e900808d20009df2070058ff0700a7
:103dfc001028ef001228ef000080fa0000000600e7
:103e0c000000fa0010002000e04e88000e000700b1
:103e1c000040eb003a0007002a83a8008220a8008b
:103e2c00d902a800d342a800da22ef00d422ef0076
:103e3c00d902a80092fd0700bafd07008202070014
:103e4c006bff0700feff37000000fa006200200045
:103e5c0001402000000028002afc070000802e00f2
:103e6c003100200083f107000080fa0000000600fa
:103e7c000200fa00004f780001003700000000003b
:103e8c0023c2bf00624060000004e000fbff3a0068
:103e9c001e80fb002011880001003700000000008c
:103eac0023c2bf00614060000004e000fbff320051
:103ebc000080fa00000006000600fa0010079800c7
:103ecc00414798000040eb00004f78000700370096
:103edc001e80fb00800078001e00900000804000d7
:103eec0010407800e2ff07001e4fe8004e409000a3
:103efc009e4f1000f6ff39000080fa00000006000b
:103f0c000200fa00004f7800c0c7b300d8ff0700ca
:103f1c001e407800d6ff07000080fa000000060063
:103f2c000000fa00c0c7b300d1ff07000040eb004f
:103f3c00cfff07000080fa00000006000200fa0024
:103f4c00000f7800c0c7b300c9ff070010c0b30052
:103f5c00c7ff07001e007800c5ff07000080fa00ad
:103f6c00000006000200fa00000f7800c0c7b30082
:103f7c00bfff070020c0b300bdff07001e00780084
:103f8c00bbff07000080fa00000006000800fa00e2
:103f9c00000f78001107980022079800330798004b
:103fac00c0c7b300b2ff070030c0b300b0ff0700ba
:103fbc001e007800aeff07001e009000acff07004b
:103fcc002e009000aaff07003e009000a8ff0700fb
:103fdc000080fa00000006000000fa00c0c7b30021
:103fec00a3ff070040c0b300a1ff07000080fa0048
:103ffc00000006000800fa00000f78001107980076
:10400c002207980033079800c0c7b30098ff070039
:10401c0050c0b30096ff07001e00780094ff070005
:10402c001e00900092ff07002e00900090ff0700ea
:10403c003e0090008eff07000080fa000000060092
:10404c000000fa00c0c7b30089ff070060c0b300ce
:10405c0087ff07000080fa00000006000200fa004b
:10406c00000f78001e00e00002003c001000200051
:10407c00000f7800600020009e0f1000020034003a
:10408c0060002000000f7800c0c7b30078ff070065
:10409c0070c0b30076ff07001e00780074ff0700a5
:1040ac000080fa00000006000000fa00c0c7b30050
:1040bc006fff070080c0b3006dff07000080fa009f
:1040cc00000006000200fa00000f7800c0c7b30021
:1040dc0067ff0700a0c0b30065ff07001e00780053
:1040ec0063ff07000080fa00000006000800fa00d9
:1040fc00000f7800110798002207980033079800ea
:10410c00c0c7b3005aff0700b0c0b30058ff070088
:10411c001e00780056ff07001e00900054ff070099
:10412c002e00900052ff07003e00900050ff070049
:10413c000080fa00000006000a00fa00000f780068
:10414c00110798002207980033079800440798003d
:10415c00c0c7b30046ff0700c0c0b30044ff070050
:10416c001e00780042ff07001e00900040ff070071
:10417c002e0090003eff07003e0090003cff070021
:10418c004e0090003aff07000080fa000000060085
:10419c000a00fa00100798002107980032079800cf
:1041ac0043079800c0c7b30031ff0700d0c0b3006d
:1041bc002fff07001e0090002dff07002e0090001f
:1041cc002bff07003e00900029ff07000000eb00ca
:1041dc00000f7800070037001e0078008000780080
:1041ec004e009000008040001040780020ff070037
:1041fc001e0fe800f00120009e0f1000f6ff3400a7
:10420c000080fa00000006000a00fa00000f780097
:10421c00110798002207980033079800440798006c
:10422c00c0c7b30012ff0700f0c0b30010ff0700b7
:10423c001e0078000eff07001e0090000cff070008
:10424c002e0090000aff07003e00900008ff0700b8
:10425c004e00900006ff07000080fa0000000600e8
:10426c000600fa00000f780011079800220798004a
:10427c00c0c7b300fefe070000c1b300fcfe070080
:10428c00000820009e0f10000300340000c8b3008b
:10429c00f7fe0700070037001e00e00003003d009a
:1042ac000040eb00f2fe0700020037001e00780011
:1042bc00effe07009e00900000042000808f50004d
:1042cc000300340000c4b300e9fe07000800370007
:1042dc001e0090000000e00003003d000040eb00d9
:1042ec00e3fe0700020037001e009000e0fe07000e
:1042fc002e009000e10f5000060032002e009000be
:10430c000000e0000300320010c0b300d8fe07002c
:10431c00020037002e009000d5fe07000080fa0046
:10432c00000006000a00fa00000f78001107980040
:10433c002207980033079800044f9800c0c7b300b9
:10434c00cbfe070020c1b300c9fe07001e00780099
:10435c00c7fe07001e009000c5fe07002e0090004f
:10436c00c3fe07003e009000c1fe07000e489000ff
:10437c00bffe07000080fa00000006000000fa00f3
:10438c00c0c7b300bafe070040c1b300b8fe0700b7
:10439c000080fa00000006000000fa00c0c7b3005d
:1043ac00b3fe070050c1b300b1fe07000080fa0055
:1043bc00000006000e00fa00100798002107980074
:1043cc003207980043079800540798006507980037
:1043dc00c0c7b300a6fe070060c1b300a4fe07006f
:1043ec001e009000a2fe07002e009000a0fe070009
:1043fc003e0090009efe07004e0090009cfe0700c1
:10440c005e0090009afe0700ce0090005e009000c7
:10441c000088b90082002000110009000200d800b9
:10442c00000f78000000eb0010079800090037001f
:10443c001e009000800078006e009000008040000c
:10444c00104078008afe07001e0090000000e80073
:10445c00100798001e0090009e0f5000f4ff3500ce
:10446c000080fa00000006000400fa00000f78003b
:10447c0011079800c0c7b3007dfe070080c1b300d0
:10448c007bfe07001e00780079fe0700c0c7b30052
:10449c0077fe070090c1b30075fe07001e00900068
:1044ac0073fe07000080fa00000006000400fa000a
:1044bc00100798001e009000e80f50000300340015
:1044cc0080002000100798000c0037001e009000a0
:1044dc000000e00003003c001000200010079800d2
:1044ec00060037001e0090004300dd00680f5000ee
:1044fc009e00780010002000dbff07000080fa000f
:04450c0000000600a5
:020000040000fa
:104510009a09000020000000020000000000800056
:104520003f46b60013bf1000e9d73e004260650069
:10453000bd19ca00c93dc7004b973e00c74b970045
:104540003e39b400c83d00003809000040000000ba
:10455000000000001408000012000000020000002b
:104560000a000200001e000069003f00004c0b0022
:10457000e209f500006601000008000014000000d8
:1045800000000000dc090000020000000200000042
:1045900001000000d4090000040000000200000037
:1045a0000100000000000000260800008a00000052
:1045b00000000000b00800008800000002000000b9
:1045c0000100000000d60800d708d60008d6080071
:1045d000d608d60008c60800000000000000000051
:1045e00000000000000000000000000000000000cb
:1045f00000000000000208000101fe0008ff0800a2
:10460000fe08fe0008fe0800fe08ee00080000009c
:10461000000000000000000000000000000000009a
:10462000000000000000000000000200080202007c
:10463000260927000926090026092600092609005f
:10464000160900000000000000000000000000004b
:10465000000000000000000000000000000000005a
:10466000b008d800080009000000000000000000a9
:104670000000000000000000ba0900001a0000005d
:1046800002000000686a6c00747a4c0000000100af
:1046900000020000040008000010000000002000dc
:1046a0002b2d230030000000de0900000200000076
:1046b0000200000004000000d8090000040000000f
:1046c00000000000e00900000200000000000000ff
:1046d00078090000220000000200000030313200a2
:1046e0003334350036373800394142004344450001
:1046f0004600300031323300343536003738390067
:10470000616263006465660000000000e209000069
:0c4710000200000000000000000000009b
:020000040000fa
:10471c000200fa00004f780011e1a9001021a90055
:10472c0010c1a9000621ef0081088000f0fc2f00c9
:10473c00008060000050a0008008880084e0a90080
:10474c0094e0a90000fa2000600888000080fa00bc
:10475c00000006000400fa00004f780011079800d2
:10476c001e407800e14f50001b003a00d2e2a90035
:10477c0001e224001e009000008050008000eb003d
:10478c0032f7070002002000030a2400e2f70700ba
:10479c00c6f7070000007800600d880001e22400d5
:1047ac001e009000008050008000eb0027f70700ef
:1047bc0002002000030a2400d7f70700bbf707000c
:1047cc0000007800500d880060002000700d8800fb
:1047dc0011e1a8001a003700d2c2a90001e224009e
:1047ec001e009000008050008000eb0017f70700bf
:1047fc0002002000030a2400c7f70700abf70700ec
:10480c0000007800300d880001e224001e009000aa
:10481c00008050008000eb000cf707000200200025
:10482c00030a2400bcf70700a0f70700000078007b
:10483c00200d880060002000400d880011e1a800c8
:10484c000080fa00000006000000fa002143a800d6
:10485c0001198000f0cf2f00008060000019880043
:10486c0001198000000e2000010070000019880062
:10487c002223ef0025e3a9002119800000f021007c
:10488c00010070002019880020c0b30024e3b70099
:10489c0021e3a8000080fa00000006000200fa00e4
:1048ac00004f7800d822a900d842a900d862a900ec
:1048bc001e407800e14f500009003a00dc22a900ac
:1048cc00dc42a800dc62a8004119800000fe2f0029
:1048dc0000806000f000b300401988000b00370026
:1048ec001e407800e24f500008003a00dc22a8007d
:1048fc00dc42a900dc62a9004119800000fe2f00f7
:10490c00008060009000b300401988000080fa001d
:10491c00000006000000fa002023a80000000000a0
:10492c0000198000610060000000e000fcff320014
:10493c002003a900001880000080fa000000060087
:020000040000fa
:0200000401f009
:04000800ffffff00f7
:020000040000fa
:0200000401f009
:04000c00a30000004d
:020000040000fa
:0200000401f009
:04001000c500000027
:020000040000fa
:0200000401f009
:040014005f00000089
:00000001FF
